:100000000C9490090C94AD090C94AD090C94AD09B5
:100010000C94AD090C94AD090C94AD090C94AD0988
:100020000C94AD090C94AD090C94AD090C94AD0978
:100030000C94AD090C94AD090C94AD090C94AD0968
:100040000C94AD090C94AD090C94AD090C94AD0958
:100050000C94AD094853332D004853322D004853BA
:10006000312D00352E20486967682053636F726513
:100070007300312E20526573746172740050726582
:10008000737300FF01FD05050505FD0101F909096F
:10009000090909F9090909090909090909090909E0
:1000A000F9090909090909090909090909F90909E0
:1000B00009090909F9818181818181818181818198
:1000C000818181818181818181F90909090909F988
:1000D000090909090939090909090909F909090970
:1000E0000909090979090909090909090909090910
:1000F000F9010101FF000000FF01010101010101FF
:100100000101FFFF00FF00000000FF8080FF0000F2
:10011000000000F00000000000FF10101010101090
:100120001F0000000000FF000000000000FF0000B2
:1001300000000000F010101010101010101010101F
:10014000101010101010101010F000000000000F20
:100150000000000000FC404040404040C300000060
:1001600000000000F80000000000FF000000000098
:10017000FF000000FF000000FF0000000000000082
:100180000000FFFF001F10101010101010F00000F2
:10019000000000FF00000000007F000000000000E1
:1001A000FE08080808083F0000000000003F0000AB
:1001B00000000000FF00000000000000F808080830
:1001C0000808080808080808080F0000000000FFD9
:1001D00002020202023F0000000000007F00000057
:1001E00000000000FF01010101013F0000000000CC
:1001F000FF000000FF000000FF0000000000000002
:100200000000FFFF0000000000000000000F0808D1
:100210000808080F08080808080808080808080857
:100220000F08080808080C0808080808080C08083F
:10023000080808080F00000000000000FF00000090
:100240000000FF0101010101010F08080808080F63
:1002500008080808080C080808080808080808081A
:10026000080808080F08080808080C080808080803
:100270000F000000FF000000FF0000000000000071
:100280000000FFFF000000000000000000F0101060
:10029000101010F01010101010F01010101010109E
:1002A00010101010101010101010101010F010106E
:1002B0001010101030202020202020203F000000AF
:1002C0000000FF000000000000F0101010101010DF
:1002D0001010101010F0101010101010F01010105E
:1002E00010101010301010101010101010101010EE
:1002F000F0000000FF000000FF0000000000000010
:100300000000FFFF000000000000000000FF0000F0
:10031000000000F000000000003F2020202020FE10
:10032000000000000000FE0000000000000F0000C0
:1003300000000000FC040404040404040404040495
:10034000040407000000000000FF1010101010FE51
:1003500000000000003F000000000000FF808080DF
:1003600080808080FC0404040404FE00000000007F
:10037000FF000000FF000000FF0000000000000080
:100380000000FFFF000000000000000000FF000070
:10039000000000FF2020202020FC00000000000FB3
:1003A000000000000000FF020202020202FF000043
:1003B00000000000E12121212121212121212121F1
:1003C000212121212121212121E10000000000FF24
:1003D0000000000000FC000000000000FF00000022
:1003E00000000000F00000000000FF00000000001E
:1003F0000F0808080F000000FF00000000000000C8
:100400000000FFFF8080808080808080809F9090AF
:100410009090909090909090909F90909090909FBE
:100420009090909090909F909090909090909090BD
:10043000909090909F80808080808080808080805D
:100440008080808080808080809F9090909090902D
:1004500090909090909F909090909090909090908D
:10046000909090909F90909090909090909090907D
:100470009F818181FF000000FF80808080808080DC
:100480008080FF0000FF010101010101FF01010166
:10049000010101E1010101010101FF01010101016E
:1004A0000101010101010101010101010101FF013E
:1004B00001010101FF010101010101E1010101014E
:1004C0000101FF010101010101FFFFFF0101010124
:1004D0000101E1010101010101FF2121212121216E
:1004E000FF010101010101E1010101010101FF0120
:1004F000010101010101FF0000FF010101010101F2
:1005000001FF000000FF000000000000FF000000ED
:10051000000000FF080808080808FF0000000000AD
:1005200000000000000000FC000000000000FF00D0
:1005300000000000FF000000000000FF00000000BD
:100540000000FF000000000000FF0FFF000000009F
:100550000000FF8080808080808700000000000015
:10056000FF000000000000FF000000000000FF008E
:10057000000000000000FF0000FF0000000000007D
:1005800000FF000000FF000000000000FF0000006E
:10059000000000FF000000000000FF00080808083D
:1005A00008080808080800FF000000000000FF011C
:1005B000010101010F000000000000FF0000000029
:1005C0000000FF000000000000FF00FF000000002E
:1005D0000000FF000000000000FF0000000000001D
:1005E0000F000000000000FF000000000000C3003A
:1005F000000000000000FF0000FF000000000000FD
:1006000000FF000000FF8080808080808700000065
:10061000000000FF0000000000000F0000000000CC
:1006200000000000000000FF8080808080808780C4
:1006300080808080FF000000000000FF00000000BC
:1006400000000F0000000000000100010000000099
:100650000000FF000000000000FF8080808080809C
:10066000FF000000000000FF040404040404FF0075
:10067000000000000000FF0000FF0000000000007C
:1006800000FF000000FF000000000000FF0000006D
:10069000000000FF000000000000FF00000000005C
:1006A00000000000000000FF00000000000000004B
:1006B00000000000FF000000000000FF000000003C
:1006C0000000FF000000000000000000000000002B
:1006D0000000FF000000000000FF0000000000001C
:1006E000FF040404040404FF000000000000FF00F5
:1006F000000000000000FF0000FF000000000000FC
:1007000000FF000000FF000000000000FF000000EC
:10071000000000FF000000000000FF0000000000DB
:1007200000000000000000FF0000000000000000CA
:10073000000000000F010101010101FF00000000A5
:100740000000FF000000000000FE00FE00000000AE
:100750000000FF000000000000FF0000000000009B
:10076000F0000000000000FF000000000000FF009B
:10077000000000000000FF0000FF0000000000007B
:1007800000FF000000FF000000000000FF0000006C
:100790000000000F000000000000FF0080000000CB
:1007A00000000000008000FF0000000000000000CA
:1007B00000000000FF000000000000FF000000003B
:1007C0000000FF000000000000FFE0FF000000004C
:1007D0000000FF010101010101E100000000000033
:1007E000FF000000000000FF010101010101FF0006
:1007F000000000000000FF0000FF000000000000FB
:1008000000FF000000FF80808080808087808080E3
:10081000808080FF808080808080FF80BFA0A0A03B
:10082000A0A0A0A0A0BF80FF80808080808080806A
:1008300080808080FF808080808080878484848422
:10084000848487808080808080FFFFFF808080801C
:10085000808087808080808080FF848484848484FA
:10086000FF808080808080FF808080808080FF800B
:10087000808080808080F00000FF80808080808089
:1008800080FF000000000000000000FF00000000EA
:10089000FF010101010101E1212121212121E101CA
:1008A0000101010101E1212121212121E1010101B8
:1008B000010101E1010101010101FF01010101014A
:1008C00001E1212121212121E121212121212121B8
:1008D000212121212121E1010101010101FF01016A
:1008E00001010101FF010101010101FF01010101FC
:1008F0000101E1010101010101FF0101010101FF0C
:100900000101010000000000000000FF00000000E5
:10091000F0000000000000FF000000000000FF00E9
:100920000000000000FF000000000000FF000000C9
:10093000000000FF000000000000FF0000000000B9
:1009400000FF0000000000000F000000000000FE9B
:10095000000000000000FF000000000000FF000099
:10096000000000000F000000000000FF0000000079
:100970000000FF0000000000000F0000000000FF6A
:100980000000000000000000000000FF0000000068
:10099000FF808080808080FF000000000000FF005A
:1009A0000000000000F0808080808080FF00000058
:1009B000000000FF000000000000FF000000000039
:1009C00000FF000000000000FF000000000000FF2A
:1009D000000000000000FF000000000000FF000019
:1009E00000000000FF000000000000FF0101010105
:1009F0000101FF010101010101FF0000000000FFF2
:100A00000000000000000000000000FF00000000E7
:100A1000FF000000000000FF000000000000FF00D9
:100A20000000000000FF000000000000FF000000C8
:100A3000000000FF000000000000FF808080808038
:100A400080FF000000000000FF000000000000FF29
:100A5000000000000000FF000000000000F00000A7
:100A600000000000FF000000000000FF0000000088
:100A70000000F0000000000000FF0000000000FF88
:100A80000000000000000000000000FF0000000067
:100A9000FF000000000000FF000000000000FF80D9
:100AA0008080808080FF0000000000000F000000B8
:100AB000000000FF000000000000FF000000000038
:100AC00000F0000000000000FF000000000000FF38
:100AD000000000000000FF000000000000FF010116
:100AE0000101010101000000000000FF0000000002
:100AF0000000FF000000000000FF0000000000FFF9
:100B00000000000000000000000000FF00000000E6
:100B1000FF000000000000FF000000000000F000E7
:100B20000000000000FF000000000000FF000000C7
:100B3000000000FF000000000000FF0000000000B7
:100B400000FF000000000000FF000000000000FFA8
:100B5000101010101010F00000000000000F010134
:100B600001010101FF000000000000E1212121211D
:100B70002121E1000000000000E10000000000FF72
:100B80000000000000000000000000FF0000000066
:100B9000FF000000000000FF000000000000FF0058
:100BA0000000000000F0101010101010FF000000F6
:100BB000000000F0000000000000FF010101010141
:100BC00001FF000000000000FF0000000000000F17
:100BD000000000000000FF000000000000FF000017
:100BE00000000000FF000000000000FF0000000007
:100BF0000000FF000000000000FF0000000000F007
:100C00000000000000000000000000FF00000000E5
:100C1000FF808080808080FF808080808080FF8057
:100C200080808080808380808080808083808080BE
:100C3000808080FF8080808080808780808080802E
:100C40008087808080808080FF808080808080FF9F
:100C5000808080808080FF808080808080FF808096
:100C6000808080808784848484848487808080805E
:100C7000808087848484848484878080808080FFCF
:100C800080808022080A0E206004020506070809F9
:100C90000203030508020402040704070707070705
:100CA0000707070202070707080E090808080707D1
:100CB0000908020708070B080907090907080809B6
:100CC0000D070808040404060803070706070705BC
:100CD0000707020306020A070707070506050707B5
:100CE0000B060705050105070800000000000000CD
:100CF00000FEFE18181E1E001E1E000000000090C0
:100D0000F89E90F89E1C00001C0000183C26FF6610
:100D1000CC88040C183C180C041C221CC0308E40DB
:100D20008000001804000C100C80CC7E72F2DE0CE7
:100D300080000C1C1010101C0C1C101E1E0000F05B
:100D4000FC061C7CC006FCF0C07C1C14140E1414A1
:100D50000000000000606060FCFC6060600000005B
:100D60000C0C00000000005838C0C0C0C0000000DB
:100D7000000000181800C0380618040000F8FC0E27
:100D8000060EFCF8040C1C181C0C04180CFEFE00CB
:100D9000001C1C181C86C6663E1C181C1C18181843
:100DA00018888C062626FEDC040C1C18180C04C0BF
:100DB000E0B88CFEFE80040404041C1C04707E3E1B
:100DC0003636F6C60C1C1818180C04F8FC6E66664D
:100DD000EECC040C1818181C0C060606E6761E0647
:100DE00000001C1C0000009CFE666666FE9C0C1C3D
:100DF0001818181C0C3C7E666666FCF80C1C18184B
:100E00001C0C0418181818181858386060F0F0985E
:100E1000980C0000000004040CD8D8D8D8D8D8D832
:100E2000000000000000000C9898F0F060600C04D6
:100E30000400000000080C06C6E6763C180000001E
:100E40001818000000E03008C4F63A1A1AF2FA7EC8
:100E50000408F00C30604C9C98988C9C9C90484CFA
:100E60002000C0F8BE86BEF8C000181C04040404AC
:100E7000041C18FEFE66666666FEDC1C1C1818184C
:100E8000181C0CF8FC0E06060E9C08040C1C181806
:100E90001C0C04FEFE0606060EFCF81C1C18181896
:100EA0001C0C04FEFE66666666661C1C1818181884
:100EB00018FEFE66666666061C1C0000000000F850
:100EC000FC0E0606C6CEDCC8040C1C181818180C3C
:100ED00004FEFE60606060FEFE1C1C000000001C42
:100EE0001CFEFE1C1C8080000000FEFE0C1C18185E
:100EF000181C0CFEFE603078EC86021C1C00000002
:100F0000041C18FEFE00000000001C1C1818181815
:100F100018FEFE0E7CE000E07C0EFEFE1C1C0000B5
:100F20000C1C0C00001C1CFEFE1C78E080FEFE1C4D
:100F30001C0000040C1C1CF8FC0E0606060EFCF837
:100F4000040C1C1818181C0C04FEFE6666667E3C19
:100F50001C1C0000000000F8FC0E0686060EFCF8C3
:100F6000040C1C18181C0C1C24FEFE6666E6E6BE6B
:100F70001C001C1C0000000C1C18103C7E666666E1
:100F8000EECC0C1C1818181C0C060606FEFE0606F5
:100F9000060000001C1C000000FEFE00000000FE19
:100FA000FE040C1C18181C0C04021EFCE000E0FCE3
:100FB0001E020000001C1C1C00000006FEF800F0D1
:100FC000FE0EFEF000F8FE0600001C1C1C000000D7
:100FD0001C1C1C0000060EF8F0F80E06181C04007D
:100FE000041C18060E38F0F0380E060000001C1C19
:100FF000000000060686E6761E0E06181C1C181851
:10100000181818FEFE0606FCFCC0C00638C000001A
:101010000004180606FEFEC0C0FCFC20380E0E3888
:101020002000000000000000000000000000008020
:10103000808080808080800206040000001098D8A4
:1010400058F8F0000C1C18180C1C10FEFE30183854
:10105000F0E01C1C0C181C0C04E0F01818383004CC
:101060000C18181C0CE0F0381830FEFE040C1C188C
:101070000C1C1CE0F0D8D8D8F0E0040C1818181894
:101080000818FCFE1A1A001C1C0000E0F03818308A
:10109000F8F864ECDCD8CCFC7CFEFE301818F8F0D4
:1010A0001C1C0000001C1CFAFA1C1C00FAFAC0FCF4
:1010B0007CFEFEE0F098081C1C00041C18FEFE1CC0
:1010C0001CF8F81018F8F01818F8F01C1C00001C98
:1010D0001C00001C1CF8F8301818F8F01C1C00004C
:1010E000001C1CE0F0381838F0E0040C1C181C0C34
:1010F00004F8F8301838F0E0FCFC0C181C0C04E084
:10110000F0381830F8F8040C1C180CFCFCF8F83017
:1011100018181C1C00000070F8D8D8D890081818AF
:10112000181C0C18FCFE1818000C1C1818F8F800F5
:101130000000F8F80C1C18180C1C1C38F8C000C073
:10114000F83800001C1C1C000018F8E000F038F013
:1011500000E0F81800001C1C0C000C1C1C000018FF
:1011600038E0E03818181C04041C1818F8E000E0F7
:10117000F8180084FCF83C04001898D878381C1C37
:1011800018181880FC7E0606007CFCC0C0FEFC0619
:10119000067EFC80C0C0FC7C006030307060603037
:1011A00000000000000000FE020202020202FE1C1B
:1011B0001010101010101C212121214849474820EF
:1011C00053434F524521212121002121212148490A
:1011D00047482053434F52452121212100212121FD
:1011E00021484947482053434F524521212121009E
:1011F00053636F7265202D002121212E2E47616DD2
:1012000065204F7665722E2E21212100212121217A
:10121000484947482053434F52452121212100216D
:10122000212121484947482053434F52452121213C
:10123000210021212121484947482053434F52454D
:10124000212121210053636F7265202D004C6576AA
:10125000656C20436F6D706C65746564003100329D
:101260000033004C4556454C2033002121212148B4
:101270004947482053434F52452121212100212134
:101280002121484947482053434F524521212121DC
:101290000021212121484947482053434F524521ED
:1012A0002121210053636F7265202D002121212E01
:1012B0002E47616D65204F7665722E2E212121000B
:1012C0004C6576656C20436F6D706C657465640069
:1012D0003100320033004C4556454C2032005363F8
:1012E0006F7265202D002121212E2E47616D652012
:1012F0004F7665722E2E212121004C6576656C207B
:10130000436F6D706C6574656400310032003300AA
:101310004C4556454C20310057454C434F4D4500F8
:1013200011241FBECFE5D4E0DEBFCDBF10E0A0E6A4
:10133000B0E0E6EFFAE502C005900D92A036B107E5
:10134000D9F710E0A0E6B0E001C01D92A03EB107C1
:10135000E1F70E9462190C94792D0C940000FC01B5
:10136000849108959093C5008093C4007093BB004E
:101370006093BA0040939C0008950F931F93082F29
:101380008091C4009091C500E091BA00F091BB003B
:1013900004960995182F8091C4009091C500E091A2
:1013A000BA00F091BB0005960995482F0117D8F0B7
:1013B000202F30E0812F90E0840F911D28173907EE
:1013C00094F4011B202F30E02A5F3F4F8091C4002E
:1013D0009091C500E091BA00F091BB00820F931F7D
:1013E00009958F5F01C080E01F910F9108950F93C1
:1013F0001F93CF93DF938C01C0E0D0E006C00F5F56
:101400001F4F0E94BD09C80FD11DF801808188239C
:10141000B1F7CE01DF91CF911F910F9108950F93F6
:101420001F93CF93DF93EC0100E010E007C02196FB
:10143000F90184910E94BD09080F111D9E01FE0152
:1014400084918823A1F7C801DF91CF911F910F915B
:101450000895DF93CF930F92CDB7DEB7982F662311
:1014600019F4AC98AB9A04C0613011F4AB98AC9A03
:10147000A898A9988FEF81BB92BBAA9A00000000A0
:101480000000AA98198203C089818F5F89838981AE
:101490008830D0F312BA0F90CF91DF9108951F9347
:1014A00087FD80E0603408F060E08093A3006093E3
:1014B000A4006695669566956093A500803410F447
:1014C00060E002C0805461E080640E94290A1091AB
:1014D000A500186B812F60E00E94290A812F61E02E
:1014E0000E94290A1F9108951F93DF93CF930F92B3
:1014F000CDB7DEB712BA11BA9091A300903418F4A8
:10150000AC98AB9A02C0AB98AC9A903431F4882373
:1015100021F080E461E00E94290AA89AA99AAA9A77
:1015200000000000000010B3AA98198203C089814E
:101530008F5F898389818830D0F38FEF81BB809161
:10154000A3006091A4000E944F0A80916000811165
:101550001095812F0F90CF91DF911F910895DF9209
:10156000EF92FF920F931F93DF93CF930F92CDB71C
:10157000DEB7F82E8091A30087FD8BC0803418F46D
:10158000AC98AB9A02C0AB98AC9A803419F461E085
:101590000E94290AA89AA9980FEF01BB1091A400F4
:1015A000177009F45EC0D5B281E00E94740A80E031
:1015B0000E94740AD5BA01BBEF2CFF24012F10E062
:1015C0009701002E02C0220F331F0A94E2F7982FD2
:1015D000922B809160008111909592BBAA9A000095
:1015E00000000000AA98198203C089818F5F898357
:1015F00089818830D0F36091A400685F8091A30056
:101600000E944F0A81E00E94740A80E00E94740ADE
:10161000D5BA9FEF91BB28E030E0201B310B02C010
:10162000F594E7942A95E2F7282F2E2980916000FF
:101630008111209522BBAA9A000000000000AA9800
:10164000198203C089818F5F898389818830D0F3B3
:101650008091A3006091A40068508F5F0E944F0AA0
:1016600017C0809160008111F094F2BAAA9A00002C
:1016700000000000AA98198203C089818F5F8983C6
:1016800089818830D0F38091A3008F5F8093A3007D
:1016900012BA0F90CF91DF911F910F91FF90EF90B1
:1016A000DF9008952F923F924F925F926F927F92B8
:1016B0008F929F92AF92BF92CF92DF92EF92FF9262
:1016C0000F931F93CF93DF93082F8091C4009091C5
:1016D000C500E091BA00F091BB0003960995C82EB1
:1016E0008091C4009091C500E091BA00F091BB00D8
:1016F00004960995182F8091C4009091C500E0913F
:10170000BA00F091BB0005960995D82E5090A30021
:101710002090A400011708F4A0C0202F30E0812FF2
:1017200090E08D0D911D281739070CF096C0E02E22
:10173000E11AFF2400E010E0C6E0D0E008C0C901D3
:101740008C0F9D1F0995080F111DF3942196209170
:10175000C4003091C500E091BA00F091BB00FE14C6
:1017600070F3CC2DD0E02796CE0143E09595879578
:101770004A95E1F72797382EAC01409FC001419F61
:10178000900D509F900D1124CD2CDD2446E050E0AB
:10179000C40ED51EC80ED91E8E2D90E00696820F5F
:1017A000931F0995682E98E0E92EF12CEC1AFD0A9A
:1017B0007724882488E0A82EB12C43C04E2C8601C3
:1017C000080D111D992424C08091C4009091C5007A
:1017D000E091BA00F091BB00800F911F0995982FFE
:1017E000CA15DB0544F490E0042C02C0959587955A
:1017F0000A94E2F7982F80919C008F3F11F4892F73
:1018000002C0892F80950E94AF0A93940F5F1F4FEB
:101810009614D0F280919C008F3F11F480E001C0BB
:101820008FEF0E94AF0A6091A400685F852D0E942F
:101830004F0A7394860C88E090E0A80EB91EE80E5B
:10184000F91E731408F4BACF5394852D860D622DBA
:101850000E944F0A20E030E002C021E030E0C901E0
:10186000DF91CF911F910F91FF90EF90DF90CF907C
:10187000BF90AF909F908F907F906F905F904F90B0
:101880003F902F9008950F931F93CF93DF93EC0118
:101890000091A30017C08A3091F41091A4008091A8
:1018A000C4009091C500E091BA00F091BB0003968E
:1018B0000995180F802F612F0E944F0A02C00E94C5
:1018C000520B2196FE018491882329F7DF91CF9155
:1018D0001F910F9108950F931F93CF93DF93EC0106
:1018E0000091A30017C08A3091F41091A400809158
:1018F000C4009091C500E091BA00F091BB0003963E
:101900000995180F802F612F0E944F0A02C00E9474
:10191000520B21968881882331F7DF91CF911F9157
:101920000F9108950F931F93162F042F687F0E9425
:101930004F0A81E00E94740A80E00E94740A482FD6
:10194000212F30E00F3F59F42770307081E090E094
:1019500002C0880F991F2A95E2F7842B0BC02770CD
:10196000307081E090E002C0880F991F2A95E2F75D
:10197000809584230E94AF0A1F910F910895AF9222
:10198000BF92CF92DF92EF92FF920F931F93CF936C
:10199000DF93B82EA42EE22EE394462F4770F62E46
:1019A000F41ACE2DD0E0642F70E028E030E0C901B9
:1019B000861B970BC817D9075CF42C1B3D0B8FEFC8
:1019C00090E002C0959587952A95E2F70E2D03C009
:1019D00008E0041B8FEF90E002C0880F991F6A9502
:1019E000E2F7D82E8B2D6F2D0E944F0A10E0CD2CE0
:1019F000C09481E00E94740A80E00E94740A982FCB
:101A00008C2D892390959D21892B0E94AF0A1F5F01
:101A1000A11678F714C088E0F80E8B2D6F2D0E9468
:101A20004F0A10E081E00E94740A80E00E94740A6C
:101A300080950E94AF0A1F5FA116A0F7085F202FB4
:101A400030E0C90107968C179D072CF30E1528F579
:101A5000C21BD30B8FEF90E002C0880F991FCA956D
:101A6000E2F7082F009588E0F80E8B2D6F2D0E946D
:101A70004F0A10E0F02EF09481E00E94740A80E09A
:101A80000E94740A982F8F2D892390959023892B7B
:101A90000E94AF0A1F5FA11678F7DF91CF911F91C7
:101AA0000F91FF90EF90DF90CF90BF90AF9008958F
:101AB0001F93182F80916000811741F080E060E053
:101AC0004FE72FE30E94BF0C109360001F91089511
:101AD0009F92AF92BF92CF92DF92EF92FF920F93BD
:101AE0001F93CF93DF93B82E942EE22EA02EE39473
:101AF000462F4770F62EF41ACE2DD0E0642F70E0FA
:101B000028E030E0C901861B970BC817D9075CF4A1
:101B10002C1B3D0B8FEF90E002C0959587952A9581
:101B2000E2F70E2D03C008E0041B8FEF90E002C027
:101B3000880F991F6A95E2F7D82E8B2D6F2D0E9482
:101B40004F0A10E0CD2CC09481E00E94740A80E01E
:101B50000E94740A9FEFA91611F48D2901C08C21EF
:101B60000E94AF0A1F5F911678F70EC088E0F80E4A
:101B70008B2D6F2D0E944F0A10E08A2D0E94AF0A14
:101B80001F5F9116D0F7085F202F30E0C90107963C
:101B90008C179D075CF30E1528F5C21BD30B8FEF36
:101BA00090E002C0880F991FCA95E2F7E82EE094F2
:101BB00098E0F90E8B2D6F2D0E944F0A10E0FE2C3D
:101BC000F09481E00E94740A80E00E94740A9FEF02
:101BD000A91611F48E2901C08F210E94AF0A1F5F40
:101BE000911678F7DF91CF911F910F91FF90EF90B1
:101BF000DF90CF90BF90AF909F9008950F93109279
:101C0000A3001092A4001092A500809360008FEFB3
:101C100084BB8FE360E00E94290A8FE361E00E94A9
:101C2000290A80EC60E00E94290A80EC61E00E94B1
:101C3000290A80E060E04FE72FE300E00E94680D92
:101C400080E060E00E944F0A0F9108952F923F922A
:101C50004F925F926F927F928F929F92AF92BF92BC
:101C6000CF92DF92EF92FF920F931F93DF93CF9368
:101C7000CDB7DEB72C970FB6F894DEBF0FBECDBF41
:101C80008F83688749872A87C02EDD24C601880F85
:101C9000991F22273327281B390B3E832D832D5F65
:101CA0003F4F3C872B873F80300E262E200E342F4F
:101CB0008F81380F3B83301B3C839A85960F998325
:101CC000901B9A83432C522C632E792EAA24BB247A
:101CD000882499241C2D022D0C19842D602F4E2D43
:101CE0000E94920CF32CFC188F2D652D4E2D0E9416
:101CF000920C862D602F4E2D0E94920C0C810C0DA3
:101D0000802F652D4E2D0E94920CFA811F0F862D7B
:101D1000612F4E2D0E94920C802F672D4E2D0E9418
:101D2000920C842D612F4E2D0E94920C8F2D672DC9
:101D30004E2D0E94920C2B853C8537FF07C02A5FF1
:101D40003F4F280D391D3C872B8715C08B859C85FF
:101D50000A969C878B87C5018C199D09880F991F4E
:101D6000880F991FEB85FC85E80FF91FFC87EB872F
:101D70000894C108D1080894A11CB11C4A945A9433
:101D80006394739424E030E0820E931ECA14DB0443
:101D90000CF0A0CF1D81F984F10E832D68854F2DA5
:101DA00020E00E2D0E94680D832D69814F2D20E0CB
:101DB0000E94680D3A85130F8F81622D40E0212F1C
:101DC0000E94680D8B81622D40E0212F0E94680DDA
:101DD0002C960FB6F894DEBF0FBECDBFCF91DF912A
:101DE0001F910F91FF90EF90DF90CF90BF90AF9039
:101DF0009F908F907F906F905F904F903F902F902B
:101E00000895CF92DF92EF92FF920F931F93182FB6
:101E1000F62ED42EC22E20E00E94680D6C2D6F0D80
:101E2000812F4D2D20E00E94680D812F6F2D40E005
:101E30002C2D0E94680D8D2D810F6F2D40E02C2DD3
:101E40000E94680D1F910F91FF90EF90DF90CF904F
:101E500008954F925F926F927F928F929F92AF926E
:101E6000BF92CF92DF92EF92FF920F931F93CF9387
:101E7000DF93D82EC62EF42EE22E502E841751F466
:101E8000261710F4E62EC22EEC188D2D6C2D40E096
:101E90002E2D0BC0621769F4481710F4FD2CD42EB8
:101EA000FD188D2D6C2D4F2D20E0052D0E94680D05
:101EB000D6C0622F70E04C2D50E02F2D30E0281B53
:101EC0003109CB01841B950B8217930734F4461B11
:101ED000570B421753070CF462C0FD1430F48F2DDA
:101EE000FD2CD82E8E2DEC2CC82E4F2C4D18EE2DFF
:101EF000F0E02C2D30E04F01821A930AA42CBB2471
:101F000088EC90E0AC01849EC001859E900D949E6B
:101F1000900D1124B5010E94522DEB010C2DFF24D0
:101F200039016E1A7F0A8F2D90E08C9F90018D9F52
:101F3000300D9C9F300D1124C90168EC70E00E94A7
:101F4000522D162F1C0DC90168EC70E00E94522D15
:101F50008436910514F01F5F05C05FEF8D3995073A
:101F60000CF411504F2D4D0D842F602F212F052D76
:101F70000E94290F8A149B042CF0CE1418F4012F10
:101F80000F5F09C06A147B042CF0EC1418F4012FC5
:101F9000015001C0012FF3944F1428F660C0EC14D7
:101FA00028F48F2DFD2CD82EEC2CC62E4E2C4C1840
:101FB000EF2DF0E02D2D30E04F01821A930AA42C72
:101FC000BB2488EC90E0AC01849EC001859E900DFE
:101FD000949E900D1124B5010E94522DEB014D2DC0
:101FE000EE2439016E1A7F0A8E2D90E08C9F9001AD
:101FF0008D9F300D9C9F300D1124C90168EC70E05D
:102000000E94522D162F1D0DC90168EC70E00E9430
:10201000522D8436910514F01F5F05C05FEF8D3996
:1020200095070CF411502E2D2C0D842F622F412F6B
:10203000052D0E94290F8A149B042CF0DF1418F43C
:10204000412F4F5F09C06A147B042CF0FD1418F473
:10205000412F415001C0412FE3944E1428F6DF91E7
:10206000CF911F910F91FF90EF90DF90CF90BF9095
:10207000AF909F908F907F906F905F904F9008955A
:10208000EF92FF920F931F93CF93DF938C01FF2466
:1020900016C0F801EC0FFD1FE4908C2F6F2D0E94ED
:1020A0004F0A8E2D0E94AF0A2196C038D10589F7BC
:1020B00000581F4F88E0F80E80E4F81619F0C0E0D1
:1020C000D0E0E7CFDF91CF911F910F91FF90EF907C
:1020D0000895EF92FF920F931F93CF93DF938C019C
:1020E000FF2416C0F801EC0FFD1FE4908C2F6F2D1C
:1020F0000E944F0A8E2D0E94AF0A2196C038D1054A
:1021000089F700581F4F88E0F80E80E4F81619F0A0
:10211000C0E0D0E0E7CFDF91CF911F910F91FF900A
:10212000EF900895EF92FF920F931F93CF93DF9359
:102130008C01FF2416C0F801EC0FFD1FE4908C2FDA
:102140006F2D0E944F0A8E2D0E94AF0A2196C03833
:10215000D10589F700581F4F88E0F80E80E4F81683
:1021600019F0C0E0D0E0E7CFDF91CF911F910F9140
:10217000FF90EF90089580E487B98CE886B90895C0
:10218000806487B983E08A95F1F7369A349BFECF55
:10219000349A24B135B1C9010895EF92FF920F939B
:1021A0001F93082F162F80938B006093CD00E62E8F
:1021B000E3946E2D4FEF0E94920CF02EF3948F2D2E
:1021C000612F4FEF0E94920C1E5F8F2D612F4FEFFA
:1021D0000E94920C802F8E5F6E2D4FEF0E94920C0A
:1021E0001F910F91FF90EF9008956091CD006F5F68
:1021F00080918B0040E00E94920C80918B008F5F59
:102200006091CD0040E00E94920C80918B00609123
:10221000CD006E5F8F5F40E00E94920C80918B003A
:102220006091CD006F5F8E5F40E00E94920C089538
:10223000EF92FF920F931F93082F162F0E94F51015
:1022400000938B001093CD00E12EE394802F6E2D30
:102250004FEF0E94920CF02EF3948F2D612F4FEFD1
:102260000E94920C1E5F8F2D612F4FEF0E94920CE7
:10227000802F8E5F6E2D4FEF0E94920C1F910F9159
:10228000FF90EF900895823731F40E94F51080910D
:102290008B008F5F07C08C3651F40E94F51080913F
:1022A0008B00815080938B006091CD0013C08537E7
:1022B00031F40E94F5106091CD00615007C0843662
:1022C00059F40E94F5106091CD006F5F6093CD00CE
:1022D00080918B000E94181184EC99E00197F1F72E
:1022E00008950F931F93DF93CF9300D0CDB7DEB740
:1022F000FC019B018A01CA0168E070E00E94522D36
:102300007695762F662777956795620F731FE60F90
:10231000F71FE491E9831A822981C80168E070E01F
:102320000E94522D482F30E0082E02C03595279587
:102330000A94E2F720FD0DC0898190E002C09595D6
:1023400087954A95E2F780FD03C020E030E003C0A6
:1023500003C021E030E0C9010F900F90CF91DF91D1
:102360001F910F910895CF93DF9360918B0040915F
:10237000CD0050E04150504083E898E070E00E946A
:102380007111892B19F560918B0070E06F5F7F4FA1
:102390004091CD0050E04150504083E898E00E94C9
:1023A0007111892B99F460918B0070E06E5F7F4F03
:1023B0004091CD0050E04150504083E898E00E94A9
:1023C0007111892B19F4C1E0D0E002C0C0E0D0E067
:1023D00060918B004091CD0050E04D5F5F4F83E8EE
:1023E00098E070E00E947111892B09F560918B00D3
:1023F00070E06F5F7F4F4091CD0050E04D5F5F4FC9
:1024000083E898E00E947111892B89F460918B0018
:1024100070E06E5F7F4F4091CD0050E04D5F5F4FA9
:1024200083E898E00E947111892B09F42A96609143
:102430008B0070E06D5F7F4F4091CD0083E898E0A6
:1024400050E00E947111892B11F560918B0070E0B2
:102450006D5F7F4F4091CD0050E04F5F5F4F83E84D
:1024600098E00E947111892B91F460918B0070E0CB
:102470006D5F7F4F4091CD0050E04E5F5F4F83E82E
:1024800098E00E947111892B11F4CC59DF4F6091B3
:102490008B0070E0615070404091CD0083E898E07F
:1024A00050E00E947111892B11F560918B0070E052
:1024B000615070404091CD0050E04F5F5F4F83E826
:1024C00098E00E947111892B91F460918B0070E06B
:1024D000615070404091CD0050E04E5F5F4F83E807
:1024E00098E00E947111892B11F4C851DC4FCE0184
:1024F000DF91CF910895CF93DF9360918B0040914E
:10250000CD0050E04150504083E894E070E00E94DC
:102510007111892B19F560918B0070E06F5F7F4F0F
:102520004091CD0050E04150504083E894E00E943B
:102530007111892B99F460918B0070E06E5F7F4F71
:102540004091CD0050E04150504083E894E00E941B
:102550007111892B19F4C1E0D0E002C0C0E0D0E0D5
:1025600060918B004091CD0050E04D5F5F4F83E85C
:1025700094E070E00E947111892B09F560918B0045
:1025800070E06F5F7F4F4091CD0050E04D5F5F4F37
:1025900083E894E00E947111892B89F460918B008B
:1025A00070E06E5F7F4F4091CD0050E04D5F5F4F18
:1025B00083E894E00E947111892B09F42A966091B6
:1025C0008B0070E06D5F7F4F4091CD0083E894E019
:1025D00050E00E947111892B11F560918B0070E021
:1025E0006D5F7F4F4091CD0050E04F5F5F4F83E8BC
:1025F00094E00E947111892B91F460918B0070E03E
:102600006D5F7F4F4091CD0050E04E5F5F4F83E89C
:1026100094E00E947111892B11F4CC59DF4F609125
:102620008B0070E0615070404091CD0083E894E0F1
:1026300050E00E947111892B11F560918B0070E0C0
:10264000615070404091CD0050E04F5F5F4F83E894
:1026500094E00E947111892B91F460918B0070E0DD
:10266000615070404091CD0050E04E5F5F4F83E875
:1026700094E00E947111892B11F4C851DC4FCE01F6
:10268000DF91CF910895CF93DF9360918B004091BC
:10269000CD0050E04150504083E890E070E00E944F
:1026A0007111892B19F560918B0070E06F5F7F4F7E
:1026B0004091CD0050E04150504083E890E00E94AE
:1026C0007111892B99F460918B0070E06E5F7F4FE0
:1026D0004091CD0050E04150504083E890E00E948E
:1026E0007111892B19F4C1E0D0E002C0C0E0D0E044
:1026F00060918B004091CD0050E04D5F5F4F83E8CB
:1027000090E070E00E947111892B09F560918B00B7
:1027100070E06F5F7F4F4091CD0050E04D5F5F4FA5
:1027200083E890E00E947111892B89F460918B00FD
:1027300070E06E5F7F4F4091CD0050E04D5F5F4F86
:1027400083E890E00E947111892B09F42A96609128
:102750008B0070E06D5F7F4F4091CD0083E890E08B
:1027600050E00E947111892B11F560918B0070E08F
:102770006D5F7F4F4091CD0050E04F5F5F4F83E82A
:1027800090E00E947111892B91F460918B0070E0B0
:102790006D5F7F4F4091CD0050E04E5F5F4F83E80B
:1027A00090E00E947111892B11F4CC59DF4F609198
:1027B0008B0070E0615070404091CD0083E890E064
:1027C00050E00E947111892B11F560918B0070E02F
:1027D000615070404091CD0050E04F5F5F4F83E803
:1027E00090E00E947111892B91F460918B0070E050
:1027F000615070404091CD0050E04E5F5F4F83E8E4
:1028000090E00E947111892B11F4C851DC4FCE0168
:10281000DF91CF910895FF920F931F938735A1F415
:1028200010E40FE7F02E812F61E041E02DE300E09E
:102830000E94680D8F2D811B61E041E02DE30E9415
:10284000680D115080F715C0823499F410E4B0E897
:10285000FB2E812F61E041E02EE30FEF0E94680D17
:102860008F2D811B61E041E02EE30E94680D115025
:1028700080F71F910F91FF900895EF92FF920F93B1
:102880001F93CF93DF93E82EF62E8A01C0E0D0E0AD
:1028900008C0CE018F0D682F8E2D4FEF0E94920C35
:1028A0002196C017D107ACF3DF91CF911F910F9103
:1028B000FF90EF900895EF92FF920F931F93CF93A5
:1028C000DF93E82EF62E8A01C0E0D0E007C08E2DFF
:1028D0008C0F6F2D4FEF0E94920C2196C017D107DD
:1028E000B4F3DF91CF911F910F91FF90EF90089576
:1028F000EF92FF920F931F93CF93DF93E82EF62E64
:102900008A01C0E0D0E008C0CE018F0D682F8E2D67
:1029100040E00E94920C2196C017D107ACF3DF91E2
:10292000CF911F910F91FF90EF900895EF92FF923A
:102930000F931F93CF93DF93E82EF62E8A01C0E00A
:10294000D0E007C08E2D8C0F6F2D40E00E94920CBE
:102950002196C017D107B4F3DF91CF911F910F914A
:10296000FF90EF900895EF92FF920F931F93CF93F4
:10297000DF937C01EB014430510509F47CC0453004
:10298000510594F441305105E9F1423051051CF4F0
:10299000452B19F129C14230510509F442C0433099
:1029A000510509F021C155C04730510509F4C7C090
:1029B000483051054CF44530510509F47FC046308C
:1029C000510509F011C198C04830510509F4C7C03C
:1029D0004930510509F008C1E0C045E050E00E94CF
:1029E0005B14BE016D5F7F4FC70145E050E00E9460
:1029F0005B14C7010496BE0143E050E00E943D1401
:102A0000C70197C045E050E00E945B142197C701C1
:102A10000496BE0143E050E00E943D142296C70197
:102A200049C043E050E00E943D14C701BE0143E0AD
:102A300050E00E945B1487010E5F1F4FC801BE016A
:102A400043E050E00E943D14BE016E5F7F4FC8011D
:102A50004CC045E050E00E945B14C701BE0143E05A
:102A600050E00E943D14C7010296BE0143E050E0D1
:102A70000E943D143EC045E050E00E945B14BE0140
:102A800061507040C701039644E050E00E943D143D
:102A9000BE016E5F7F4FC701019641E050E00E948A
:102AA0003D14C701BE0142E050E00E943D14239650
:102AB000C7010296BE0141E050E03EC06E5F7F4F0D
:102AC00043E050E00E945B14C701BE0143E050E0C8
:102AD0000E943D1487010E5F1F4FC801BE0143E0F5
:102AE00050E00E943D14C801BE0143E050E00E9446
:102AF0005B14C70104961DC06E5F7F4F45E050E038
:102B00000E945B14C701BE0143E050E00E943D14E7
:102B1000C7010496BE0143E050E00E943D148701C6
:102B20000E5F1F4FC801BE0143E050E00E945B14DE
:102B3000C801BE0143E050E00E943D1455C045E08D
:102B400050E00E945B14C701BE0143E050E00E94C8
:102B50003D142296C701BE0142E050E043C045E06B
:102B600050E00E945B14C701BE0143E050E00E94A8
:102B70003D14C7010296BE0143E050E00E943D149F
:102B8000C7010496BE0143E050E00E943D14229626
:102B9000C701BE0145E050E025C045E050E00E947D
:102BA0005B1487010E5F1F4FC801BE0143E050E078
:102BB0000E943D14C701BE0143E050E00E943D1455
:102BC000C801BE0143E050E00E943D14C7010496D5
:102BD000BE0143E050E00E943D142296C701BE01B1
:102BE00043E050E00E945B14DF91CF911F910F9161
:102BF000FF90EF900895EF92FF920F931F93CF9362
:102C0000DF937C01EB014430510509F47FC045306E
:102C100051059CF44130510509F43FC04230510543
:102C20001CF4452B19F12BC14230510509F444C065
:102C30004330510509F023C157C04730510509F40D
:102C4000C9C0483051054CF44530510509F481C0E4
:102C50004630510509F013C19AC04830510509F4B6
:102C6000C9C04930510509F00AC1E2C045E050E051
:102C70000E9496148E0103501040C701B80145E030
:102C800050E00E949614C7010496B80143E050E05A
:102C90000E947814C701B80198C045E050E00E9436
:102CA00096142197C7010496BE0143E050E00E94AC
:102CB00078142296C70149C043E050E00E9478147E
:102CC000C701BE0143E050E00E94961487010E5FE9
:102CD0001F4FC801BE0143E050E00E947814BE01BE
:102CE0006E5F7F4FC8014CC045E050E00E949614D3
:102CF000C701BE0143E050E00E947814C70102966C
:102D0000BE0143E050E00E9478143EC045E050E030
:102D10000E949614BE0161507040C701039644E0C2
:102D200050E00E947814BE016E5F7F4FC70101968C
:102D300041E050E00E947814C701BE0142E050E03B
:102D40000E9478142396C7010296BE0141E050E02C
:102D50003EC06E5F7F4F43E050E00E949614C70173
:102D6000BE0143E050E00E94781487010E5F1F4FC0
:102D7000C801BE0143E050E00E947814C801BE01C2
:102D800043E050E00E949614C70104961DC06E5F98
:102D90007F4F45E050E00E949614C701BE0143E01A
:102DA00050E00E947814C7010496BE0143E050E051
:102DB0000E94781487010E5F1F4FC801BE0143E0D7
:102DC00050E00E949614C801BE0143E050E00E940A
:102DD000781455C045E050E00E949614C701BE012A
:102DE00043E050E00E9478142296C701BE0142E001
:102DF00050E043C045E050E00E949614C701BE0178
:102E000043E050E00E947814C7010296BE0143E0FF
:102E100050E00E947814C7010496BE0143E050E0E0
:102E20000E9478142296C701BE0145E050E025C0FB
:102E300045E050E00E94961487010E5F1F4FC801C5
:102E4000BE0143E050E00E947814C701BE0143E098
:102E500050E00E947814C801BE0143E050E00E9497
:102E60007814C7010496BE0143E050E00E94781434
:102E70002296C701BE0143E050E00E949614DF9104
:102E8000CF911F910F91FF90EF900895B59903C0D6
:102E900081E090E00EC0B69903C082E090E009C0E6
:102EA000B79903C083E090E004C0B49907C084E000
:102EB00090E090937C0080937B000895B29906C0C7
:102EC00085E090E090937C0080937B0008950E94C1
:102ED000461780917B0090917C008130910529F408
:102EE00010927A001092790010C08230910551F44E
:102EF00002C00E94461780917B0090917C0002974F
:102F0000C1F308958330910529F410927C0010924A
:102F10007B000895049791F48091790090917A0054
:102F20009093DB008093DA008FEF9FEF90937A000D
:102F30008093790010927C0010927B0008950E948B
:102F4000671780E487B983E08A95F1F7369A349B56
:102F5000FECF349A44B155B150938F0040938E0008
:102F600081E487B983E08A95F1F7369A349BFECFE6
:102F7000349A24B135B13093C1002093C000C90107
:102F80008F5491400F9728F41092D9001092D800D6
:102F900040C0C9018E5591400F9718F481E090E030
:102FA00034C0C9018D5691400F9718F482E090E02B
:102FB0002CC0C9018C579140499718F483E090E0E8
:102FC00024C081E0253938071CF084E090E01DC062
:102FD000C901805491400F9718F48FEF9FEF15C0EF
:102FE000C901815391400F9718F48EEF9FEF0DC0E8
:102FF000C901875291400B9718F48DEF9FEF05C0E0
:103000002852314034F48CEF9FEF9093D900809395
:10301000D800CA018F5491400F9728F41092B7003E
:103020001092B6000895CA018E5591400F9718F47A
:1030300081E090E02EC0CA018D5691400F9718F4A0
:1030400082E090E026C0CA018C579140499718F45D
:1030500083E090E01EC081E0453958071CF084E011
:1030600090E017C0CA01805491400F9718F48FEF79
:103070009FEF0FC0CA01815391400F9718F48EEF54
:103080009FEF07C0CA01875291400B9738F48DEF2C
:103090009FEF9093B7008093B60008954852514037
:1030A00034F48CEF9FEF9093B7008093B6000895AF
:1030B000EF92FF920F931F937C018B0145E050E04C
:1030C0000E94961401501040C701B80145E050E03D
:1030D0000E94961401501040C701B80145E050E02D
:1030E0000E9496140D5F1F4FC701B80145E050E0E4
:1030F0000E9496140F5F1F4FC701B80145E050E0D2
:103100000E9496140F5F1F4FC701B80145E050E0C1
:103110000E9496141F910F91FF90EF900895CF9207
:10312000DF92EF92FF920F93CF93DF93C0E0D0E056
:1031300099E1C92ED12C87E0E82EF12CB4C021965C
:103140000E944617C130D10531F581E061E04EE7BC
:103150002EE30FEF0E94010F82E062E04CE72CE3C8
:103160000E94010F86E26AE00E944F0A8DE790E01C
:103170000E94430C82E169E10E944F0A82E790E0DD
:103180000E94430C8FE068E20E944F0A83E690E0C1
:103190000E94430C05C0C430D10511F4C2E0D0E058
:1031A00080917B0090917C00059709F076C080E0CB
:1031B00060E04FE72FE300E00E94680D81E061E0EE
:1031C0004EE72EE30FEF0E94010F82E062E04CE732
:1031D0002CE30E94010F8FE06AE00E944F0A8EE507
:1031E00090E00E94430C80916300909164006EEC2B
:1031F00070E04AE050E00E94212D8CE26AE00E94DB
:103200004F0A8EEC90E00E946B0C8FE069E10E9407
:103210004F0A89E590E00E94430C809165009091EF
:10322000660061E870E04AE050E00E94212D8DE2E6
:1032300069E10E944F0A81E890E00E946B0C8FE0E8
:1032400068E20E944F0A84E590E00E94430C80915E
:103250006D0090916E006AEA70E04AE050E00E94D2
:10326000212D8DE268E20E944F0A8AEA90E00E94D6
:103270006B0C80E49FE1F6013197F1F70197D9F7E4
:1032800080E060E04FE72FE300E00E94680DF092DD
:103290007C00E0927B00C0E0D0E080917B009091C8
:1032A0007C00019739F080917B0090917C00019720
:1032B00009F045CFDF91CF910F91FF90EF90DF9014
:1032C000CF9008952F923F924F925F926F927F928C
:1032D0008F929F92AF92BF92CF92DF92EF92FF9226
:1032E0000F931F93CF93DF9380E487B98CE886B95F
:1032F00080E00E94FE0D83E89CE09093C5008093DF
:10330000C4008FEA99E09093BB008093BA008FEFDE
:1033100080939C0010927A001092790083E087BB22
:103320008CEF88BB1092DB001092DA00E9E1CE2E20
:10333000D12C8091790090917A008F5F9F4F41F45A
:103340008091DA009091DB0090937A00809379006D
:103350008091790090917A00892BD1F50E946717AE
:103360001092700010926F00109268001092670027
:1033700010926A001092690010926C0010926B001B
:10338000109272001092710080E060E040E820E44A
:103390000FEF0E94680D87E590E00E940B148EE10C
:1033A00064E10E944F0A88E193E10E94430C88E89F
:1033B00093E1F6013197F1F70197D9F787E590E0AE
:1033C0000E940B1481E090E090937A008093790042
:1033D0008091790090917A00019709F096C30E943C
:1033E000671780E060E04FE72FE300E00E94680D80
:1033F0008EE16FE04DE324E10FEF0E94010F8FE1BA
:1034000060E14BE322E10E94010F83E264E10E944C
:103410004F0A80E193E10E94430C70E5E72E73ECC4
:10342000F72EC7010197F1F780E060E04FE72FE347
:1034300000E00E94680D8CE364E10E944F0A8EE078
:1034400093E10E94430CC7010197F1F780E060E02F
:103450004FE72FE30E94680D8CE364E10E944F0A5E
:103460008CE093E10E94430CC7010197F1F780E0E3
:1034700060E04FE72FE30E94680D8CE364E10E9457
:103480004F0A8AE093E10E94430CC7010197F1F7CC
:1034900080E060E04FE72FE30E94680D83E898E04A
:1034A0000E94401082E090E06CE370E045E050E064
:1034B0000E945B1486E090E06AE370E043E050E035
:1034C0000E943D1482E090E068E370E041E050E04B
:1034D0000E943D1484E090E068E370E041E050E039
:1034E0000E943D1482E090E065E370E041E050E02E
:1034F0000E94B3148DE790E063E070E00E94CD106D
:1035000088EA91E60197F1F70E94F5108DE790E0C7
:1035100063E070E00E94CD1084E690E09093BF00DD
:103520008093BE0010927200109271001092990068
:103530001092980010929300109292001092B50091
:103540001092B4001092DF001092DE0064EDE62EBF
:1035500060E3F62ECCE5D4E45AE6A52E58E1B52E6C
:1035600047E4642E712C32E0432E512C2DEF322E85
:103570001CEF98EA892E91E6992EC0C20E94671727
:103580000E94B3119093A2008093A1000E949F1704
:103590002091C0003091C10041E0273634074CF142
:1035A0008091A1009091A20068EE73E00E94522DDC
:1035B00084369105F4F080918B008D37D0F482E74A
:1035C00090E00E9443118091B8009091B90001965B
:1035D0009093B9008093B8001092C3001092C2007B
:1035E0001092DD001092DC001092800010927F009B
:1035F00027C02A55314024F58091A1009091A20066
:1036000060E177E20E94522D885E9340CCF08CE618
:1036100090E00E94431180917F009091800001967C
:103620009093800080937F001092DD001092DC0068
:103630001092B9001092B8001092C3001092C2000C
:1036400020918E0030918F0041E028333407ECF058
:103650008091A1009091A2006AE070E00E94522D3A
:103660001816190694F485E790E00E9443118091A2
:10367000C2009091C30001969093C3008093C20052
:103680001092DD001092DC0022C02C5231403CF53B
:103690008091A1009091A20064E670E00E94522DFA
:1036A0000A97ECF08091CD008F33C8F484E690E067
:1036B0000E9443118091DC009091DD00019690936F
:1036C000DD008093DC001092C3001092C2001092C3
:1036D000800010927F001092B9001092B800809183
:1036E000A1009091A2006AE070E00E94522D18168D
:1036F000190614F18091C2009091C3000B97E4F079
:1037000082E690E00E944311C7010197F1F782E63B
:1037100090E00E944311C7010197F1F782E690E023
:103720000E944311C7010197F1F782E690E00E94E1
:103730004311C7010197F1F78091A1009091A20078
:1037400064E670E00E94522D0A9714F58091DC0027
:103750009091DD000B97E4F085E790E00E94431123
:10376000CE010197F1F785E790E00E944311CE0169
:103770000197F1F785E790E00E944311CE01019790
:10378000F1F785E790E00E944311CE010197F1F730
:103790008091A1009091A20060E177E20E94522DF9
:1037A000885E934014F580917F00909180000B9784
:1037B000E4F082E790E00E944311CE010197F1F717
:1037C00082E790E00E944311CE010197F1F782E772
:1037D00090E00E944311CE010197F1F782E790E05B
:1037E0000E944311CE010197F1F78091A1009091C1
:1037F000A20068EE73E00E94522D8436910514F504
:103800008091B8009091B9000B97E4F08CE690E0BD
:103810000E944311CE010197F1F78CE690E00E94DF
:103820004311CE010197F1F78CE690E00E9443111D
:10383000CE010197F1F78CE690E00E944311CE0192
:103840000197F1F7C5010197F1F780918B0088503E
:10385000833060F58091BE009091BF00909374001A
:1038600080937300869D9001879D300D969D300D4D
:10387000112480916F0090917000820F931F90939C
:10388000700080936F0080E060E04FE72FE300E07E
:103890000E94680D8AE06AE00E944F0A8AEF92E176
:1038A0000E94430C50927A004092790080919800D7
:1038B000909199000F9709F0C4C02091BE003091FB
:1038C000BF00215030403093BF002093BE001092C3
:1038D000990010929800C9016AE070E00E94522D90
:1038E0009093DF008093DE00C9016AE070E00E94DF
:1038F000522DCB016AE070E00E94522D9093B500EA
:103900008093B400C90164E670E00E94522D709368
:10391000930060939200C90164E670E00E94522D0A
:103920008336910581F582E090E065E170E00E94C8
:10393000581882E090E060E170E00E94581882E040
:1039400090E06BE070E00E9458184091DE005091CA
:10395000DF0082E090E06BE070E00E94B3144091E1
:10396000B4005091B50082E090E060E170E00E9408
:10397000B314409192005091930082E090E065E191
:1039800070E00E94B3148091BE009091BF006AE085
:1039900070E00E94522D099751F582E090E06BE0B3
:1039A00070E00E94581882E090E060E170E00E94B0
:1039B00058184091DE005091DF0082E090E06BE00B
:1039C00070E00E94B3144091B4005091B50082E0C1
:1039D00090E060E170E00E94B31440919200509139
:1039E000930082E090E065E170E00E94B314809162
:1039F000DE009091DF0097FD24C082E090E06BE054
:103A000070E00E9458184091DE005091DF0082E083
:103A100090E06BE070E00E94B3144091B4005091CC
:103A2000B50082E090E060E170E00E94B314409144
:103A300092005091930082E090E065E170E00E9476
:103A4000B3148091BE009091BF008A3091050CF0B4
:103A50004CC038BA181619060CF447C018BB80E0E1
:103A600060E04FE72FE300E00E94680D8AE06EE11E
:103A70000E944F0A86EE92E10E94430CC401019716
:103A8000F1F780E060E04FE72FE30E94680D8FE0E0
:103A900064E10E944F0A8EED92E10E94430C86E49D
:103AA00064E10E944F0A80916F00909170006EEC6B
:103AB00070E04AE050E00E94212D8EEC90E00E94E0
:103AC0006B0C80E49FE1F6013197F1F70197D9F78C
:103AD00080E060E04FE72FE300E00E94680D0E9465
:103AE0008F1810927A00109279008091980090912E
:103AF00099000196909399008093980080917900A5
:103B000090917A00019709F439CD809179009091D4
:103B10007A00029709F033C60E94671780E060E0E0
:103B20004FE72FE300E00E94680D8EE16FE04DE368
:103B300024E10FEF0E94010F8FE160E14BE322E1EE
:103B40000E94010F83E264E10E944F0A86ED92E138
:103B50000E94430C80E5E82E83ECF82EC701019704
:103B6000F1F780E060E04FE72FE300E00E94680D8E
:103B70008CE364E10E944F0A84ED92E10E94430CC1
:103B8000C7010197F1F780E060E04FE72FE30E9463
:103B9000680D8CE364E10E944F0A82ED92E10E947D
:103BA000430CC7010197F1F780E060E04FE72FE396
:103BB0000E94680D8CE364E10E944F0A80ED92E15F
:103BC0000E94430CC7010197F1F780E060E04FE7E6
:103BD0002FE30E94680D83E894E00E94691088E753
:103BE00090E063E170E045E050E00E945B148CE7F8
:103BF00090E061E170E043E050E00E943D1489E70D
:103C000090E06FE070E041E050E00E943D148BE7EF
:103C100090E06FE070E041E050E00E943D1488E7E2
:103C200090E06AE070E042E050E00E94B31486E465
:103C30006CE042E028E20FEF0E94680D86E290E01F
:103C400064E270E00E94CD1080918B008093900020
:103C5000109291008091CD008093A8001092A9004D
:103C600083E090E065E070E00E94CD1008EA11E684
:103C7000C8010197F1F70E94F510C8010197F1F70B
:103C800083E090E065E070E00E94CD101092BD00EE
:103C90001092BC0084E690E09093BF008093BE0039
:103CA0001092990010929800109293001092920036
:103CB0001092B5001092B4001092DF001092DE0056
:103CC000C6EADEE004E1802E912C1DE3612E712C0A
:103CD000B0E54B2EB3EC5B2EA1E02A2E312CF1E2A5
:103CE000AF2EB12C45C50E9467170E947B1290939E
:103CF000A2008093A1000E949F17CE010197F1F7C7
:103D00002091C0003091C10041E0273634074CF1CA
:103D10008091A1009091A20068EE73E00E94522D64
:103D200084369105F4F02091BC003091BD00223022
:103D3000310544F480918B00833408F05DC0121685
:103D4000130654F480918B00883131F48091CD00BA
:103D500081508A3008F450C080918B0082E790E057
:103D600050C02A5531400CF04EC08091A100909176
:103D7000A20060E177E20E94522D885E93400CF42D
:103D800042C08091BC009091BD00181619060CF538
:103D900080918B00803231F48091CD00815083304E
:103DA00058F42AC08C3131F48091CD008450863093
:103DB00080F422C0803231F48091CD008A5083306B
:103DC00040F41AC0813229F48091CD008C508530A6
:103DD00098F080918B008C3291F48091CD0090E02E
:103DE00020919400309195002817390744F027500E
:103DF0003040821793071CF083E790E002C08CE606
:103E000090E00E94431120918E0030918F0041E09C
:103E100028333407F4F08091A1009091A2006AE069
:103E200070E00E94522D181619069CF48091BC0077
:103E30009091BD00181619064CF48091CD00843085
:103E400029F480918B008B51863020F185E790E03A
:103E500026C02C5231402CF58091A1009091A200F7
:103E600064E670E00E94522D0A97DCF02091CD00AC
:103E70002F33B8F48091BC009091BD00181619063C
:103E800064F4222311F0293041F480918B008A518F
:103E9000873018F483E790E002C084E690E00E9447
:103EA000431180918B008A518B3008F05CC1809166
:103EB000CD0090E0CA970CF456C19092A000809279
:103EC0009F001BC089E190E04AE050E00E945B1433
:103ED00060919F007091A0006150704089E190E076
:103EE0004AE050E00E94961480919F009091A000BB
:103EF00001969093A00080939F0060919F00709125
:103F0000A00067337105F4F20E94F51089E190E09A
:103F10009093A00080939F0070928D0060928C001F
:103F20008DC06550704080919F009091A0004AE044
:103F300050E00E94961460918C0070918D00665044
:103F4000704080919F009091A0004AE050E00E9454
:103F50005B1460918C0070918D0065507040809171
:103F60009F009091A00045E050E00E94781460917D
:103F70008C0070918D006650704080919F009091F0
:103F8000A00045E050E00E943D1480919F00909178
:103F9000A00060918C0070918D0065507040099672
:103FA00045E050E00E94781480919F009091A0001D
:103FB00060918C0070918D0066507040099645E0CC
:103FC00050E00E943D1460918C0070918D008091B2
:103FD0009F009091A0004AE050E00E9496146091EA
:103FE0008C0070918D006150704080919F00909185
:103FF000A0004AE050E00E945B1480919F00609115
:104000008C0064508D5F42E022E001E0EE240E94CB
:10401000260E80919F0060918C0065508D5F42E07C
:1040200022E0EE24EA940E94260E80918C0090916A
:104030008D00019790938D0080938C0060918C008F
:1040400070918D006A3071050CF06BCF8CE792E9AE
:104050000197F1F78AE090E00BC089E190E04AE037
:1040600050E00E94961480918C0090918D000197F1
:1040700090938D0080938C0060918C0070918D00E6
:104080006430710554F78BE190E063E070E04AE042
:1040900050E00E943D148BE190E063E070E045E069
:1040A00050E00E945B148BE190E06CE070E045E032
:1040B00050E00E945B1480E290E063E070E04AE030
:1040C00050E00E943D148DE190E066E070E00E94B7
:1040D000CD10C2010197F1F783E090E017C080E2B4
:1040E00090E04AE050E00E943D1460918C00709195
:1040F0008D006150704080E290E041E050E00E940D
:10410000781480918C0090918D00019690938D0091
:1041100080938C0060918C0070918D006D307105E2
:10412000F4F23092BD002092BC0080E290E09093C7
:1041300095008093940082E790E00E94431182E70B
:1041400090E00E94431182E790E00E94431182E7D1
:1041500090E00E94431182E790E00E94431182E7C1
:1041600090E00E9443118091BC009091BD00181610
:1041700019061CF560919400709195008BE290E017
:1041800045E050E00E943D146091940070919500CC
:104190008BE290E042E050E00E947814809194001D
:1041A000909195008D33910514F4019602C080E240
:1041B00090E0909395008093940080918B008952B9
:1041C0008330D0F48091CD00482F50E020919400AE
:1041D00030919500CA010197281739076CF02250D9
:1041E00030404217530744F00E94F5108DE190E0F3
:1041F00066E070E00E94CD1080918B00282F30E0A7
:1042000040919000509191002417350759F0C90151
:1042100001968417950731F02E5F3F4F241735071D
:1042200009F0A3C08091CD00282F30E04091A80074
:104230005091A9002417350759F0C9010196841738
:10424000950731F02E5F3F4F2417350709F08DC0D9
:104250000E94F51086E290E064E270E00E94CD10CA
:1042600082E090E09093BD008093BC0080E290E0FB
:104270009093A00080939F00B0928D00A0928C003C
:104280006DC087E460919F0040E00E94920C87E43B
:1042900060918C0040E00E94920C88E893E10197C5
:1042A000F1F720918C0030918D002433310509F015
:1042B00046C084ED90E30197F1F780E290E090939F
:1042C000A00080939F00B0928D00A0928C0030C01F
:1042D00086E460919F0040E00E94920C88E4609127
:1042E0009F0040E00E94920C86E460918C0040E0C8
:1042F0000E94920C88E460918C0040E00E94920C35
:104300008CE792E90197F1F70E94671780919F006F
:104310009091A00001979093A00080939F008091BE
:104320008C0090918D00019690938D0080938C006D
:1043300080918C0090918D00899754F216C08091E5
:104340009F009091A00001979093A00080939F0000
:104350002F5F3F4F30938D0020938C0080918C0015
:1043600090918D00C5970CF48CCF80918B00823793
:10437000A0F18091BE009091BF0090937600809351
:10438000750047E450E0849F9001859F300D949F15
:10439000300D112480916F0090917000820F931F57
:1043A0009093700080936F0080E060E04FE72FE310
:1043B00000E00E94680D8AE06AE00E944F0A80ECEB
:1043C00092E10E94430C8FE06EE10E944F0A83E06D
:1043D00090E090937A00809379008091980090917A
:1043E0009900449709F0C4C02091BE003091BF00ED
:1043F000215030403093BF002093BE0010929900AE
:1044000010929800C9016AE070E00E94522D9093CA
:10441000DF008093DE00C9016AE070E00E94522D47
:10442000CB016AE070E00E94522D9093B50080931A
:10443000B400C90164E670E00E94522D70939300AD
:1044400060939200C90164E670E00E94522D8336A9
:10445000910581F588E790E062E370E00E945818CA
:1044600088E790E06DE270E00E94581888E790E0DD
:1044700068E270E00E9458184091DE005091DF0021
:1044800088E790E068E270E00E94B3144091B400C5
:104490005091B50088E790E06DE270E00E94B3149F
:1044A000409192005091930088E790E062E370E0C1
:1044B0000E94B3148091BE009091BF006AE070E04A
:1044C0000E94522D099751F588E790E068E270E06C
:1044D0000E94581888E790E06DE270E00E9458183A
:1044E0004091DE005091DF0088E790E068E270E0E4
:1044F0000E94B3144091B4005091B50088E790E059
:104500006DE270E00E94B3144091920050919300CC
:1045100088E790E062E370E00E94B3148091DE00CF
:104520009091DF0097FD24C088E790E068E270E09A
:104530000E9458184091DE005091DF0088E790E01B
:1045400068E270E00E94B3144091B4005091B5004D
:1045500088E790E06DE270E00E94B3144091920011
:104560005091930088E790E062E370E00E94B314FA
:104570008091BE009091BF00181619060CF4EFC090
:1045800080E060E04FE72FE300E00E94680D8AE0E2
:104590006EE10E944F0A8CEA92E10E94430C88EA85
:1045A00091E60197F1F780E060E04FE72FE30E948A
:1045B000680D8FE064E10E944F0A84EA92E10E9454
:1045C000430C86E464E10E944F0A80916F00909151
:1045D00070006EEC70E04AE050E00E94212D8EECFD
:1045E00090E00E946B0C80E49FE1F6013197F1F7B7
:1045F0000197D9F780E060E04FE72FE300E00E94E9
:10460000680D40916F0050917000209163003091CF
:1046100064004217530764F1809165009091660031
:1046200090936E0080936D00309366002093650038
:10463000509364004093630080E060E04FE72FE315
:104640000E94680D8FE069E10E944F0A81E992E1C2
:104650000E94430C88E893E1F6013197F1F7019746
:10466000D9F780E060E04FE72FE300E00E94680D9B
:1046700020916F003091700040916500509166006C
:104680002417350764F18091630090916400281726
:1046900039072CF550936E0040936D0030936600FF
:1046A0002093650080E060E04FE72FE300E00E9488
:1046B000680D8FE069E10E944F0A8EE792E10E9447
:1046C000430C88E893E1F6013197F1F70197D9F7A8
:1046D00080E060E04FE72FE300E00E94680D20914A
:1046E0006F003091700080916D0090916E002817DE
:1046F00039077CF180916500909166002817390791
:1047000044F58091630090916400281739070CF5F7
:1047100030936E0020936D0080E060E04FE72FE360
:1047200000E00E94680D8FE069E10E944F0A8BE66D
:1047300092E10E94430C88E893E1F6013197F1F78A
:104740000197D9F780E060E04FE72FE300E00E9497
:10475000680D0E948F1810927A0010927900809153
:1047600098009091990001969093990080939800F9
:104770008091790090917A00029709F4B4CA8091EF
:10478000790090917A00039711F00C9499190E9486
:10479000671780E060E04FE72FE300E00E94680DBC
:1047A0008EE16FE04DE324E10FEF0E94010F8FE1F6
:1047B00060E14BE322E10E94010F83E264E10E9489
:1047C0004F0A83E692E10E94430CE0E5EE2EE3EC13
:1047D000FE2EC7010197F1F780E060E04FE72FE37D
:1047E00000E00E94680D8CE364E10E944F0A81E6BC
:1047F00092E10E94430CC7010197F1F780E060E06D
:104800004FE72FE30E94680D8CE364E10E944F0A9A
:104810008FE592E10E94430CC7010197F1F780E018
:1048200060E04FE72FE30E94680D8CE364E10E9493
:104830004F0A8DE592E10E94430CC7010197F1F701
:1048400080E060E04FE72FE30E94680D83E890E08E
:104850000E94921010927E0010927D0010929E0095
:1048600010929D001092BD001092BC0089E190E072
:1048700069E070E00E94CD1080918B0080939000E1
:10488000109291008091CD008093A8001092A90011
:104890008DE290E06CE070E00E94CD1080918B0082
:1048A0008093A6001092A7008091CD00809396007F
:1048B00010929700109272001092710082E390E0C3
:1048C00067E070E044E150E00E94961482E390E0DB
:1048D0006CE070E044E150E00E94961481E390E0C7
:1048E00068E070E045E050E00E943D1486E490E00E
:1048F00068E070E045E050E00E943D1482E390E003
:1049000060E370E044E150E00E94961482E390E09E
:1049100065E370E044E150E00E94961481E390E08A
:1049200060E370E045E050E00E943D1486E490E0D2
:1049300060E370E045E050E00E943D1489E390E0C0
:1049400063E170E04DE050E00E94961482E390E055
:1049500065E270E049E050E00E94961482E390E046
:104960006AE270E04FE050E00E9496148FE390E01E
:1049700068E170E047E050E00E94961489E390E01F
:1049800064E170E043E150E00E9478148FE390E02E
:1049900068E170E043E150E00E94781486E490E022
:1049A00063E170E045E050E00E943D1481E390E057
:1049B00065E270E045E050E00E943D148DE690E035
:1049C00063E370E045E050E00E9496148DE690E0CD
:1049D00068E370E045E050E00E9496148DE690E0B8
:1049E00063E370E046E050E00E943D1481E790E010
:1049F00063E370E046E050E00E943D1488E790E0F9
:104A000063E170E045E050E00E945B148CE790E0C9
:104A100061E170E043E050E00E943D1489E790E0DE
:104A20006FE070E041E050E00E943D148BE790E0C1
:104A30006FE070E041E050E00E943D1488E790E0B4
:104A40006AE070E043E050E00E94B31484E090E03C
:104A500065E070E00E94CD101092A2001092A100BB
:104A600084E690E09093BF008093BE00109299007E
:104A70001092980010929300109292001092B5003C
:104A80001092B4001092DF001092DE0013E076EA7C
:104A9000A72E7EE0B72E64E0862E912C51E0E52E05
:104AA000F12C43E0642E712C32E0432E512C27E48C
:104AB000222E312CBDC70E9467170E94431390938A
:104AC000A2008093A10050E457B9812F8A95F1F795
:104AD000369A349BFECF349A84B195B190938F006F
:104AE00080938E0081E487B9812F8A95F1F7369AF9
:104AF000349BFECF349A24B135B13093C10020935A
:104B0000C00091E0273639077CF18091A100909197
:104B1000A20068EE73E00E94522D8436910524F1C4
:104B20002091BC003091BD002115310521F4809108
:104B30008B008D32B9F12230310561F480918B0008
:104B400090E08D973CF08091CD008E3250F085330F
:104B500040F428C02330310521F480918B00893640
:104B600009F182E790E023C02A55314014F5809185
:104B7000A1009091A20060E177E20E94522D885E30
:104B80009340BCF08091BC009091BD00019769F406
:104B900080918B00823349F48091CD008E3228F0D1
:104BA000853318F483E790E002C08CE690E00E9421
:104BB000431120918E0030918F0081E02833380717
:104BC00074F08091A1009091A2006AE070E00E94D0
:104BD000522D181619061CF485E790E013C02C52CC
:104BE000314094F48091A1009091A20064E670E0BD
:104BF0000E94522D0A9744F08091CD008F3320F40B
:104C000084E690E00E944311C5010197F1F780917D
:104C1000BC009091BD00009709F026C180918B00E7
:104C2000482F50E020919000309191004217530797
:104C3000C9F0CA01019682179307A1F0CA01029632
:104C40008217930779F0C90101964817590751F067
:104C5000C90101974817590729F02E5F3F4F4217A6
:104C60005307C9F58091CD00282F30E04091A8006E
:104C70005091A9002417350751F0C90101968417F6
:104C8000950729F02E5F3F4F2417350721F58091B6
:104C90007D0090917E00892BF1F40E94F5106091C7
:104CA000A8007091A90080919000909191000E94BD
:104CB000CD100E94F5106091A8007091A90061507C
:104CC000704080919000909191000E94CD10F092E0
:104CD0007E00E0927D0080918B00482F50E0209173
:104CE000A6003091A70042175307C9F0CA010196E8
:104CF00082179307A1F0CA0102968217930779F0F1
:104D0000C90101964817590751F0C9010197481781
:104D1000590729F02E5F3F4F4217530759F58091ED
:104D2000CD00282F30E04091960050919700241735
:104D3000350751F0C90101968417950729F02E5FB8
:104D40003F4F24173507B1F480919D0090919E004C
:104D5000892B81F40E94F510609196007091970064
:104D60008091A6009091A7000E94CD10F0929E0025
:104D7000E0929D0080917D0090917E00019709F066
:104D80007EC3C0919D00D0919E00C130D10509F035
:104D900076C381E390E067E070E045E050E00E9478
:104DA000781486E490E067E070E045E050E00E940F
:104DB000781481E390E067E070E046E150E00E9403
:104DC0005B1481E390E06CE070E046E150E00E940B
:104DD0005B1480918B0080939000109291008091E1
:104DE000CD008093A8001092A9008FE490E063E1C9
:104DF00070E00E94CD1083E690E062E170E00E94D6
:104E0000CD108091900080938B008091A8008093BA
:104E1000CD008FE490E0909391008093900083E127
:104E200090E09093A9008093A80083E690E090938F
:104E3000A7008093A60082E190E090939700809372
:104E4000960010927E0010927D0010929E001092AB
:104E50009D00D093BD00C093BC0080916F009091E5
:104E60007000845D9E4F2BC28130910509F00DC109
:104E700080918B00282F30E040919000509191005C
:104E80002417350751F0C90101968417950729F0B9
:104E90002E5F3F4F2417350729F58091CD00282F2D
:104EA00030E04091A8005091A9002417350751F037
:104EB000C90101968417950729F02E5F3F4F2417EB
:104EC000350781F40E94F5106091A8007091A90047
:104ED00080919000909191000E94CD10F0927E0000
:104EE000E0927D0080918B00282F30E04091A60059
:104EF0005091A7002417350751F0C9010196841776
:104F0000950729F02E5F3F4F2417350729F580912B
:104F1000CD00282F30E04091960050919700241743
:104F2000350751F0C90101968417950729F02E5FC6
:104F30003F4F2417350781F40E94F51060919600C9
:104F4000709197008091A6009091A7000E94CD10CB
:104F5000F0929E00E0929D0080917D0090917E00F5
:104F6000019709F08CC280919D0090919E0001975D
:104F700009F085C289E390E063E170E04EE050E023
:104F80000E945B1481E390E065E270E049E050E04C
:104F90000E945B1481E390E06AE270E04FE050E031
:104FA0000E945B148FE390E068E170E047E050E01E
:104FB0000E945B1489E390E064E170E042E150E01C
:104FC0000E943D148FE390E068E170E043E150E01F
:104FD0000E943D1486E490E064E170E044E050E01B
:104FE0000E94781481E390E066E270E044E050E0D3
:104FF0000E94781480918B00809390001092910011
:105000008091CD008093A8001092A9008CE090E0E0
:1050100067E370E00E94CD1087E290E064E370E007
:105020000E94CD108091900080938B008091A80009
:105030008093CD008CE090E090939100809390005D
:1050400087E390E09093A9008093A80087E290E026
:105050009093A7008093A60084E390E0909397003C
:105060008093960010927E0010927D0010929E0018
:1050700010929D005092BD004092BC0080916F0044
:10508000909170008C509E4F1AC18230910509F0AA
:105090001BC180918B00482F50E0209190003091EF
:1050A000910042175307C9F0CA010196821793076E
:1050B000A1F0CA0102968217930779F0C9010196FF
:1050C0004817590751F0C90101974817590729F0A6
:1050D0002E5F3F4F4217530759F58091CD00282F7F
:1050E00030E04091A8005091A9002417350751F0F5
:1050F000C90101968417950729F02E5F3F4F2417A9
:105100003507B1F480917D0090917E00892B81F468
:105110000E94F5106091A8007091A9008091900004
:10512000909191000E94CD10F0927E00E0927D005F
:1051300080918B00482F50E02091A6003091A7006D
:1051400042175307C9F0CA01019682179307A1F0CD
:10515000CA0102968217930779F0C9010196481790
:10516000590751F0C90101974817590729F02E5FD7
:105170003F4F4217530759F58091CD00282F30E05B
:1051800040919600509197002417350751F0C901BE
:1051900001968417950729F02E5F3F4F2417350796
:1051A000B1F480919D0090919E00892B81F40E9422
:1051B000F51060919600709197008091A6009091F3
:1051C000A7000E94CD10F0929E00E0929D00809179
:1051D0007D0090917E00019709F051C180919D0062
:1051E00090919E00019709F04AC182E390E060E34C
:1051F00070E044E150E00E945B1482E390E065E3DC
:1052000070E044E150E00E945B1481E390E061E3D0
:1052100070E044E050E00E94781486E490E061E39E
:1052200070E044E050E00E94781480918B008093FD
:105230009000109291008091CD008093A800109270
:10524000A90088E490E068E270E00E94CD108CE54F
:1052500090E06CE270E00E94CD108091900080930D
:105260008B008091A8008093CD0088E490E090931B
:1052700091008093900088E290E09093A900809341
:10528000A8008CE590E09093A7008093A6008CE2A4
:1052900090E0909397008093960010927E00109279
:1052A0007D0010929E0010929D007092BD00609251
:1052B000BC0080916F009091700084549D4F90933A
:1052C000700080936F00DBC0039709F0D8C0809115
:1052D0008B00482F50E020919000309191004217B0
:1052E0005307C9F0CA01019682179307A1F0CA01BA
:1052F00002968217930779F0C9010196481759075A
:1053000051F0C90101974817590729F02E5F3F4F07
:105310004217530759F58091CD00282F30E0409176
:10532000A8005091A9002417350751F0C901019632
:105330008417950729F02E5F3F4F24173507B1F4E6
:1053400080917D0090917E00892B81F40E94F51060
:105350006091A8007091A9008091900090919100B7
:105360000E94CD10F0927E00E0927D0080918B0033
:10537000482F50E02091A6003091A7004217530714
:10538000C9F0CA01019682179307A1F0CA010296DB
:105390008217930779F0C90101964817590751F010
:1053A000C90101974817590729F02E5F3F4F42174F
:1053B000530759F58091CD00282F30E04091960099
:1053C000509197002417350751F0C90101968417B1
:1053D000950729F02E5F3F4F24173507B1F48091D0
:1053E0009D0090919E00892B81F40E94F5106091A0
:1053F0009600709197008091A6009091A7000E945E
:10540000CD10F0929E00E0929D0080917D009091E1
:105410007E000197A1F580919D0090919E000197DB
:1054200071F580916F00909170008C579C4F909314
:10543000700080936F008DE690E063E370E046E0DB
:1054400050E00E94781481E790E063E370E046E06A
:1054500050E00E9478148DE690E063E370E045E050
:1054600050E00E945B148DE690E068E370E045E058
:1054700050E00E945B149092BD008092BC0080912D
:105480008B008D3608F405C18091BC009091BD0061
:10549000049709F0FEC08091BE009091BF009093E8
:1054A000780080937700829D9001839D300D929DBE
:1054B000300D112480916F0090917000820F931F26
:1054C0009093700080936F0080E060E04FE72FE3DF
:1054D00000E00E94680D8AE06AE00E944F0A8DE4B5
:1054E00092E10E94430C8FE06EE10E944F0A85E436
:1054F00092E10E94430C86E46EE10E944F0A809183
:105500006F00909170006EEC70E04AE050E00E94F5
:10551000212D8EEC90E00E946B0C88E893E1F6015F
:105520003197F1F70197D9F780E060E04FE72FE37B
:1055300000E00E94680D40916F0050917000209132
:105540006300309164004217530764F18091650055
:105550009091660090936E0080936D00309366008A
:1055600020936500509364004093630080E060E006
:105570004FE72FE30E94680D8FE069E10E944F0A18
:1055800082E392E10E94430C88E893E1F6013197AF
:10559000F1F70197D9F780E060E04FE72FE300E0F3
:1055A0000E94680D20916F0030917000409165005D
:1055B000509166002417350764F180916300909143
:1055C0006400281739072CF550936E0040936D0046
:1055D000309366002093650080E060E04FE72FE3A2
:1055E00000E00E94680D8FE069E10E944F0A8FE1A0
:1055F00092E10E94430C88E893E1F6013197F1F7BC
:105600000197D9F780E060E04FE72FE300E00E94C8
:10561000680D20916F003091700080916D00909125
:105620006E00281739077CF1809165009091660023
:105630002817390744F5809163009091640028177A
:1056400039070CF530936E0020936D0080E060E028
:105650004FE72FE300E00E94680D8FE069E10E94B0
:105660004F0A8CE092E10E94430C88E893E1F60136
:105670003197F1F70197D9F780E060E04FE72FE32A
:1056800000E00E94680D0E948F1810927A0010921C
:1056900079008091980090919900449709F0C4C0D6
:1056A0002091BE003091BF00215030403093BF00A8
:1056B0002093BE001092990010929800C9016AE0F0
:1056C00070E00E94522D9093DF008093DE00C901AC
:1056D0006AE070E00E94522DCB016AE070E00E9407
:1056E000522D9093B5008093B400C90164E670E038
:1056F0000E94522D7093930060939200C90164E65A
:1057000070E00E94522D8336910581F588E790E084
:1057100062E370E00E94581888E790E06DE270E064
:105720000E94581888E790E068E270E00E945818DC
:105730004091DE005091DF0088E790E068E270E081
:105740000E94B3144091B4005091B50088E790E0F6
:105750006DE270E00E94B31440919200509193006A
:1057600088E790E062E370E00E94B3148091BE008D
:105770009091BF006AE070E00E94522D099751F5A8
:1057800088E790E068E270E00E94581888E790E0AF
:105790006DE270E00E9458184091DE005091DF00E9
:1057A00088E790E068E270E00E94B3144091B40092
:1057B0005091B50088E790E06DE270E00E94B3146C
:1057C000409192005091930088E790E062E370E08E
:1057D0000E94B3148091DE009091DF0097FD24C0F9
:1057E00088E790E068E270E00E9458184091DE007F
:1057F0005091DF0088E790E068E270E00E94B31407
:105800004091B4005091B50088E790E06DE270E0FF
:105810000E94B314409192005091930088E790E069
:1058200062E370E00E94B3148091BE009091BF00CB
:10583000181619060CF4F3C080E060E04FE72FE380
:1058400000E00E94680D8AE06EE10E944F0A88EF36
:1058500091E10E94430C88EA91E60197F1F780E01C
:1058600060E04FE72FE30E94680D8FE064E10E9443
:105870004F0A80EF91E10E94430C86E464E10E94AC
:105880004F0A80916F00909170006EEC70E04AE0DA
:1058900050E00E94212D8EEC90E00E946B0C80E481
:1058A0009FE1F6013197F1F70197D9F780E060E0C9
:1058B0004FE72FE300E00E94680D40916F00509188
:1058C000700020916300309164004217530764F127
:1058D000809165009091660090936E0080936D00BA
:1058E00030936600209365005093640040936300FA
:1058F00080E060E04FE72FE30E94680D8FE069E1F0
:105900000E944F0A8DED91E10E94430C88E893E1DB
:10591000F6013197F1F70197D9F780E060E04FE7A2
:105920002FE300E00E94680D20916F00309170001D
:1059300040916500509166002417350764F180910D
:10594000630090916400281739072CF550936E007E
:1059500040936D00309366002093650080E060E026
:105960004FE72FE300E00E94680D8FE069E10E949D
:105970004F0A8AEC91E10E94430C88E893E1F6011A
:105980003197F1F70197D9F780E060E04FE72FE317
:1059900000E00E94680D20916F00309170008091AE
:1059A0006D0090916E00281739077CF18091650099
:1059B000909166002817390744F580916300909113
:1059C0006400281739070CF530936E0020936D00A2
:1059D00080E060E04FE72FE300E00E94680D8FE079
:1059E00069E10E944F0A87EB91E10E94430C88E82D
:1059F00093E1F6013197F1F70197D9F780E060E084
:105A00004FE72FE300E00E94680D109270001092A3
:105A10006F0010927A00109279000E948F18809186
:105A20009800909199000196909399008093980026
:105A30008091790090917A00039711F00C94991954
:105A40003AC8FB019F01E8944230C4F04532B4F4F7
:105A50004A3029F497FB1EF4909581959F4F642F4F
:105A600077270E94652D805D8A330CF0895D8193D4
:105A7000CB010097A1F716F45DE251931082C901A2
:105A80000C94422DDC01FC01672F71917723E1F723
:105A9000329704C07C916D9370836291AE17BF07FB
:105AA000C8F3089597FB092E07260AD077FD04D086
:105AB0000CD006D000201AF4709561957F4F0895A0
:105AC000F6F7909581959F4F0895AA1BBB1B51E156
:105AD00007C0AA1FBB1FA617B70710F0A61BB70B5E
